{
  "abi": [
    {
      "inputs": [
        {
          "internalType": "address",
          "name": "_account",
          "type": "address"
        },
        {
          "internalType": "address",
          "name": "_accountGuardian",
          "type": "address"
        }
      ],
      "stateMutability": "nonpayable",
      "type": "constructor"
    },
    {
      "inputs": [
        {
          "internalType": "address",
          "name": "account",
          "type": "address"
        }
      ],
      "name": "NoRecoveryRequestFound",
      "type": "error"
    },
    {
      "inputs": [],
      "name": "NoSignaturesYet",
      "type": "error"
    },
    {
      "inputs": [
        {
          "internalType": "address",
          "name": "sender",
          "type": "address"
        }
      ],
      "name": "NotAGuardian",
      "type": "error"
    },
    {
      "inputs": [
        {
          "internalType": "address",
          "name": "sender",
          "type": "address"
        }
      ],
      "name": "NotOwner",
      "type": "error"
    },
    {
      "anonymous": false,
      "inputs": [
        {
          "indexed": true,
          "internalType": "address",
          "name": "account",
          "type": "address"
        }
      ],
      "name": "AccountRecoveryRequestConcensusAchieved",
      "type": "event"
    },
    {
      "anonymous": false,
      "inputs": [
        {
          "indexed": true,
          "internalType": "address",
          "name": "account",
          "type": "address"
        }
      ],
      "name": "AccountRecoveryRequestConcensusFailed",
      "type": "event"
    },
    {
      "anonymous": false,
      "inputs": [
        {
          "indexed": true,
          "internalType": "address",
          "name": "account",
          "type": "address"
        }
      ],
      "name": "AccountRecoveryRequestCreated",
      "type": "event"
    },
    {
      "anonymous": false,
      "inputs": [
        {
          "indexed": true,
          "internalType": "address",
          "name": "guardian",
          "type": "address"
        }
      ],
      "name": "GuardianSignatureRecorded",
      "type": "event"
    },
    {
      "anonymous": false,
      "inputs": [],
      "name": "PrivateKeyShardsAlloted",
      "type": "event"
    },
    {
      "anonymous": false,
      "inputs": [],
      "name": "RestoredKeyEmailed",
      "type": "event"
    },
    {
      "inputs": [],
      "name": "account",
      "outputs": [
        {
          "internalType": "address",
          "name": "",
          "type": "address"
        }
      ],
      "stateMutability": "view",
      "type": "function"
    },
    {
      "inputs": [],
      "name": "accountGuardian",
      "outputs": [
        {
          "internalType": "address",
          "name": "",
          "type": "address"
        }
      ],
      "stateMutability": "view",
      "type": "function"
    },
    {
      "inputs": [
        {
          "internalType": "uint256",
          "name": "",
          "type": "uint256"
        }
      ],
      "name": "accountGuardians",
      "outputs": [
        {
          "internalType": "address",
          "name": "",
          "type": "address"
        }
      ],
      "stateMutability": "view",
      "type": "function"
    },
    {
      "inputs": [],
      "name": "accountRecoveryRequest",
      "outputs": [
        {
          "internalType": "bytes32",
          "name": "",
          "type": "bytes32"
        }
      ],
      "stateMutability": "view",
      "type": "function"
    },
    {
      "inputs": [
        {
          "internalType": "address",
          "name": "guardian",
          "type": "address"
        },
        {
          "internalType": "bytes",
          "name": "recoveryReqSignature",
          "type": "bytes"
        }
      ],
      "name": "collectGuardianSignaturesOnRecoveryRequest",
      "outputs": [],
      "stateMutability": "nonpayable",
      "type": "function"
    },
    {
      "inputs": [],
      "name": "generateRecoveryRequest",
      "outputs": [],
      "stateMutability": "nonpayable",
      "type": "function"
    },
    {
      "inputs": [],
      "name": "getRecoveryRequest",
      "outputs": [
        {
          "internalType": "bytes32",
          "name": "",
          "type": "bytes32"
        }
      ],
      "stateMutability": "view",
      "type": "function"
    },
    {
      "inputs": [
        {
          "internalType": "uint256",
          "name": "",
          "type": "uint256"
        }
      ],
      "name": "guardiansWhoSigned",
      "outputs": [
        {
          "internalType": "address",
          "name": "",
          "type": "address"
        }
      ],
      "stateMutability": "view",
      "type": "function"
    },
    {
      "inputs": [],
      "name": "owner",
      "outputs": [
        {
          "internalType": "address",
          "name": "",
          "type": "address"
        }
      ],
      "stateMutability": "view",
      "type": "function"
    },
    {
      "inputs": [],
      "name": "restorePrivateKey",
      "outputs": [],
      "stateMutability": "nonpayable",
      "type": "function"
    },
    {
      "inputs": [
        {
          "internalType": "uint8[][]",
          "name": "privateKeyShards",
          "type": "uint8[][]"
        }
      ],
      "name": "storePrivateKeyShards",
      "outputs": [],
      "stateMutability": "nonpayable",
      "type": "function"
    }
  ],
  "bytecode": {
    "object": "0x60e06040523480156200001157600080fd5b5060405162001c2d38038062001c2d83398101604081905262000034916200006d565b3360a0526001600160a01b039182166080521660c052620000a5565b80516001600160a01b03811681146200006857600080fd5b919050565b600080604083850312156200008157600080fd5b6200008c8362000050565b91506200009c6020840162000050565b90509250929050565b60805160a05160c051611b05620001286000396000818160ed015281816101bd015281816103780152818161051a015281816105cd015281816107c601526109870152600081816101610152610784015260008181610114015281816102ee0152818161041601528181610a1801528181610bb50152610c130152611b056000f3fe608060405234801561001057600080fd5b50600436106100995760003560e01c80630bf4139a1461009e578063149e704d146100a8578063249c6903146100d15780635496b134146100e85780635dab24201461010f578063835aebcd146101365780638b5c7026146101495780638da5cb5b1461015c5780639aff614014610183578063d062cd3a1461018b578063e457ca9714610193575b600080fd5b6100a66101a6565b005b6100bb6100b636600461110e565b610337565b6040516100c89190611127565b60405180910390f35b6100da60015481565b6040519081526020016100c8565b6100bb7f000000000000000000000000000000000000000000000000000000000000000081565b6100bb7f000000000000000000000000000000000000000000000000000000000000000081565b6100a6610144366004611196565b610361565b6100bb61015736600461110e565b6104f0565b6100bb7f000000000000000000000000000000000000000000000000000000000000000081565b6100da610500565b6100a66105b6565b6100a66101a136600461123d565b610779565b604051631f8bc18560e01b81526001600160a01b037f00000000000000000000000000000000000000000000000000000000000000001690631f8bc185906101f2903390600401611127565b602060405180830381865afa15801561020f573d6000803e3d6000fd5b505050506040513d601f19601f8201168201806040525081019061023391906112b1565b61025b57336040516302333ca160e51b81526004016102529190611127565b60405180910390fd5b6040805160048152602481019091526020810180516001600160e01b0316636831669d60e11b178152905190206102de816040517b0ca2ba3432b932bab69029b4b3b732b21026b2b9b9b0b3b29d05199960211b6020820152603c8101829052600090605c01604051602081830303815290604052805190602001209050919050565b6001556040516001600160a01b037f000000000000000000000000000000000000000000000000000000000000000016907e87b8a7ceccc1acde621041fe7ac8e19ac0274a2b1108bcd51cc7b25865b18090600090a250565b6000818154811061034757600080fd5b6000918252602090912001546001600160a01b0316905081565b604051631f8bc18560e01b81526001600160a01b037f00000000000000000000000000000000000000000000000000000000000000001690631f8bc185906103ad903390600401611127565b602060405180830381865afa1580156103ca573d6000803e3d6000fd5b505050506040513d601f19601f820116820180604052508101906103ee91906112b1565b61040d57336040516302333ca160e51b81526004016102529190611127565b60015461044f577f000000000000000000000000000000000000000000000000000000000000000060405163f7a155a960e01b81526004016102529190611127565b60028054600181019091557f405787fa12a823e0f2b7631cc41b3ba8828b3321ca811111fa75cd3aa3bb5ace0180546001600160a01b0319166001600160a01b038416908117909155600090815260046020908152604090912082516104b792840190610f80565b506040516001600160a01b038316907fdc36b3a3fbc6cdabc057ff91a1f61d0c6b8b17e8f89aaf3b8ac77253977e790d90600090a25050565b6002818154811061034757600080fd5b604051631f8bc18560e01b81526000906001600160a01b037f00000000000000000000000000000000000000000000000000000000000000001690631f8bc1859061054f903390600401611127565b602060405180830381865afa15801561056c573d6000803e3d6000fd5b505050506040513d601f19601f8201168201806040525081019061059091906112b1565b6105af57336040516302333ca160e51b81526004016102529190611127565b5060015490565b604051631f8bc18560e01b81526001600160a01b037f00000000000000000000000000000000000000000000000000000000000000001690631f8bc18590610602903390600401611127565b602060405180830381865afa15801561061f573d6000803e3d6000fd5b505050506040513d601f19601f8201168201806040525081019061064391906112b1565b61066257336040516302333ca160e51b81526004016102529190611127565b61066a610980565b6106cd5760405162461bcd60e51b815260206004820152602e60248201527f4163636f756e74205265636f7665727920436f6e63656e73757320686173207460448201526d6f2062652061636869657665642160901b6064820152608401610252565b606060005b60025481101561074c578160036000600284815481106106f4576106f46112d3565b60009182526020808320909101546001600160a01b03168352828101939093526040918201902090516107289392016112e9565b6040516020818303038152906040529150808061074490611939565b9150506106d2565b506040517fde44f7a9be2fc8d7ba93f909709fdb1602994f49546fde7cd2db3f0930f7296a90600090a150565b336001600160a01b037f000000000000000000000000000000000000000000000000000000000000000016146107c4573360405163245aecd360e01b81526004016102529190611127565b7f00000000000000000000000000000000000000000000000000000000000000006001600160a01b031663b9b87df06040518163ffffffff1660e01b8152600401600060405180830381865afa158015610822573d6000803e3d6000fd5b505050506040513d6000823e601f3d908101601f1916820160405261084a9190810190611962565b805161085e91600091602090910190611004565b5060005481146108cb5760405162461bcd60e51b815260206004820152603260248201527f4d69736d61746368206265747765656e206e6f2e206f66207368617264732026604482015271206163636f756e7420677561726469616e7360701b6064820152608401610252565b60005b81811015610952578282828181106108e8576108e86112d3565b90506020028101906108fa9190611a13565b60036000808581548110610910576109106112d3565b60009182526020808320909101546001600160a01b03168352820192909252604001902061093f929091611059565b508061094a81611939565b9150506108ce565b506040517f9ae391f33f5692fdb2a9618c7b91d335cfb7d88127535e4f89a0770792c1979090600090a15050565b60008060007f00000000000000000000000000000000000000000000000000000000000000006001600160a01b031663b9b87df06040518163ffffffff1660e01b8152600401600060405180830381865afa1580156109e3573d6000803e3d6000fd5b505050506040513d6000823e601f3d908101601f19168201604052610a0b9190810190611962565b51600154909150610a51577f000000000000000000000000000000000000000000000000000000000000000060405163f7a155a960e01b81526004016102529190611127565b60025415610a725760405163118970d360e01b815260040160405180910390fd5b6000805b600254811015610b9557600060028281548110610a9557610a956112d3565b60009182526020808320909101546001600160a01b0316808352600490915260409091208054919250606091610aca90611a5c565b80601f0160208091040260200160405190810160405280929190818152602001828054610af690611a5c565b8015610b435780601f10610b1857610100808354040283529160200191610b43565b820191906000526020600020905b815481529060010190602001808311610b2657829003601f168201915b505050505090506000610b5582610c64565b9050826001600160a01b0316816001600160a01b03161415610b7f5784610b7b81611939565b9550505b5050508080610b8d90611939565b915050610a76565b50610ba1600283611a97565b811115610c06576040516001600160a01b037f000000000000000000000000000000000000000000000000000000000000000016907f6d5be033b29c048c5ef8ee5e807f7da6eb5b2d895ab18c1d1cd92d242d243f9290600090a26001935050505090565b6040516001600160a01b037f000000000000000000000000000000000000000000000000000000000000000016907f93bc5c047f7d425aeafb85e02bfe0672c0f6b84353cf962fc453b04edffb20ac90600090a26000935050505090565b600080610c7360015484610c7a565b9392505050565b6000806000610c898585610c9e565b91509150610c9681610ce4565b509392505050565b600080825160411415610cd55760208301516040840151606085015160001a610cc987828585610e9d565b94509450505050610cdd565b506000905060025b9250929050565b6000816004811115610cf857610cf8611ab9565b1415610d015750565b6001816004811115610d1557610d15611ab9565b1415610d5e5760405162461bcd60e51b815260206004820152601860248201527745434453413a20696e76616c6964207369676e617475726560401b6044820152606401610252565b6002816004811115610d7257610d72611ab9565b1415610dc05760405162461bcd60e51b815260206004820152601f60248201527f45434453413a20696e76616c6964207369676e6174757265206c656e677468006044820152606401610252565b6003816004811115610dd457610dd4611ab9565b1415610e2d5760405162461bcd60e51b815260206004820152602260248201527f45434453413a20696e76616c6964207369676e6174757265202773272076616c604482015261756560f01b6064820152608401610252565b6004816004811115610e4157610e41611ab9565b1415610e9a5760405162461bcd60e51b815260206004820152602260248201527f45434453413a20696e76616c6964207369676e6174757265202776272076616c604482015261756560f01b6064820152608401610252565b50565b6000806fa2a8918ca85bafe22016d0b997e4df60600160ff1b03831115610eca5750600090506003610f77565b8460ff16601b14158015610ee257508460ff16601c14155b15610ef35750600090506004610f77565b6040805160008082526020820180845289905260ff881692820192909252606081018690526080810185905260019060a0016020604051602081039080840390855afa158015610f47573d6000803e3d6000fd5b5050604051601f1901519150506001600160a01b038116610f7057600060019250925050610f77565b9150600090505b94509492505050565b828054610f8c90611a5c565b90600052602060002090601f016020900481019282610fae5760008555610ff4565b82601f10610fc757805160ff1916838001178555610ff4565b82800160010185558215610ff4579182015b82811115610ff4578251825591602001919060010190610fd9565b506110009291506110f9565b5090565b828054828255906000526020600020908101928215610ff4579160200282015b82811115610ff457825182546001600160a01b0319166001600160a01b03909116178255602090920191600190910190611024565b82805482825590600052602060002090601f01602090048101928215610ff45791602002820160005b838211156110c357833560ff1683826101000a81548160ff021916908360ff1602179055509260200192600101602081600001049283019260010302611082565b80156110f05782816101000a81549060ff02191690556001016020816000010492830192600103026110c3565b50506110009291505b5b8082111561100057600081556001016110fa565b60006020828403121561112057600080fd5b5035919050565b6001600160a01b0391909116815260200190565b6001600160a01b0381168114610e9a57600080fd5b634e487b7160e01b600052604160045260246000fd5b604051601f8201601f191681016001600160401b038111828210171561118e5761118e611150565b604052919050565b600080604083850312156111a957600080fd5b82356111b48161113b565b91506020838101356001600160401b03808211156111d157600080fd5b818601915086601f8301126111e557600080fd5b8135818111156111f7576111f7611150565b611209601f8201601f19168501611166565b9150808252878482850101111561121f57600080fd5b80848401858401376000848284010152508093505050509250929050565b6000806020838503121561125057600080fd5b82356001600160401b038082111561126757600080fd5b818501915085601f83011261127b57600080fd5b81358181111561128a57600080fd5b8660208260051b850101111561129f57600080fd5b60209290920196919550909350505050565b6000602082840312156112c357600080fd5b81518015158114610c7357600080fd5b634e487b7160e01b600052603260045260246000fd5b6000835160005b8181101561130a57602081870181015185830152016112f0565b81811115611319576000828501525b5083546000858152602090209184019160005b82601f820110156115b357815460ff80821686526020611355818801838560081c1660ff169052565b604061136a818901848660101c1660ff169052565b606061137f818a01858760181c1660ff169052565b6080611393818b018688871c1660ff169052565b60a093506113aa848b01868860281c1660ff169052565b60c06113bf818c01878960301c1660ff169052565b60e06113d4818d01888a60381c1660ff169052565b60ff88861c8816166101008d01526113f76101208d01888a60481c1660ff169052565b61140c6101408d01888a60501c1660ff169052565b6114216101608d01888a60581c1660ff169052565b60ff88851c8816166101808d01526114446101a08d01888a60681c1660ff169052565b6114596101c08d01888a60701c1660ff169052565b61146e6101e08d01888a60781c1660ff169052565b60ff88841c8816166102008d01526114916102208d01888a60881c1660ff169052565b6114a66102408d01888a60901c1660ff169052565b6114bb6102608d01888a60981c1660ff169052565b60ff88871c8816166102808d01526114de6102a08d01888a60a81c1660ff169052565b6114f36102c08d01888a60b01c1660ff169052565b6115086102e08d01888a60b81c1660ff169052565b60ff88831c8816166103008d015261152b6103208d01888a60c81c1660ff169052565b6115406103408d01888a60d01c1660ff169052565b6115556103608d01888a60d81c1660ff169052565b60ff88821c8816166103808d015250505050505061157e6103a08701828460e81c1660ff169052565b6115936103c08701828460f01c1660ff169052565b5060f81c6103e0850152610400909301926001919091019060200161132c565b905490828110156115ce5760ff821684526020909301926001015b828110156115ea5760ff600883901c1684526020909301926001015b828110156116065760ff601083901c1684526020909301926001015b828110156116225760ff601883901c1684526020909301926001015b8281101561163f57602082901c60ff168452602093909301926001015b8281101561165b5760ff602883901c1684526020909301926001015b828110156116775760ff603083901c1684526020909301926001015b828110156116935760ff603883901c1684526020909301926001015b828110156116af5760ff604083901c1684526020909301926001015b828110156116cb5760ff604883901c1684526020909301926001015b828110156116e75760ff605083901c1684526020909301926001015b828110156117035760ff605883901c1684526020909301926001015b8281101561171f5760ff606083901c1684526020909301926001015b8281101561173b5760ff606883901c1684526020909301926001015b828110156117575760ff607083901c1684526020909301926001015b828110156117735760ff607883901c1684526020909301926001015b8281101561178f5760ff608083901c1684526020909301926001015b828110156117ab5760ff608883901c1684526020909301926001015b828110156117c75760ff609083901c1684526020909301926001015b828110156117e35760ff609883901c1684526020909301926001015b828110156117ff5760ff60a083901c1684526020909301926001015b8281101561181b5760ff60a883901c1684526020909301926001015b828110156118375760ff60b083901c1684526020909301926001015b828110156118535760ff60b883901c1684526020909301926001015b8281101561186f5760ff60c083901c1684526020909301926001015b8281101561188b5760ff60c883901c1684526020909301926001015b828110156118a75760ff60d083901c1684526020909301926001015b828110156118c35760ff60d883901c1684526020909301926001015b828110156118df5760ff60e083901c1684526020909301926001015b828110156118fb5760ff60e883901c1684526020909301926001015b828110156119175760ff60f083901c1684526020909301926001015b8281101561192d5760f882901c84526020840193505b50919695505050505050565b600060001982141561195b57634e487b7160e01b600052601160045260246000fd5b5060010190565b6000602080838503121561197557600080fd5b82516001600160401b038082111561198c57600080fd5b818501915085601f8301126119a057600080fd5b8151818111156119b2576119b2611150565b8060051b91506119c3848301611166565b81815291830184019184810190888411156119dd57600080fd5b938501935b83851015611a0757845192506119f78361113b565b82825293850193908501906119e2565b98975050505050505050565b6000808335601e19843603018112611a2a57600080fd5b8301803591506001600160401b03821115611a4457600080fd5b6020019150600581901b3603821315610cdd57600080fd5b600181811c90821680611a7057607f821691505b60208210811415611a9157634e487b7160e01b600052602260045260246000fd5b50919050565b600082611ab457634e487b7160e01b600052601260045260246000fd5b500490565b634e487b7160e01b600052602160045260246000fdfea2646970667358221220b6c558e0ed29aa51d9dbf475027629b91e64cbdf155f04cea1df1464987a303764736f6c634300080c0033",
    "linkReferences": {}
  },
  "methodIdentifiers": {
    "account()": "5dab2420",
    "accountGuardian()": "5496b134",
    "accountGuardians(uint256)": "149e704d",
    "accountRecoveryRequest()": "249c6903",
    "collectGuardianSignaturesOnRecoveryRequest(address,bytes)": "835aebcd",
    "generateRecoveryRequest()": "0bf4139a",
    "getRecoveryRequest()": "9aff6140",
    "guardiansWhoSigned(uint256)": "8b5c7026",
    "owner()": "8da5cb5b",
    "restorePrivateKey()": "d062cd3a",
    "storePrivateKeyShards(uint8[][])": "e457ca97"
  },
  "id": 126
}